{
  "contractName": "Kittycontract",
  "abi": [
    {
      "anonymous": false,
      "inputs": [
        {
          "indexed": true,
          "internalType": "address",
          "name": "owner",
          "type": "address"
        },
        {
          "indexed": true,
          "internalType": "address",
          "name": "approved",
          "type": "address"
        },
        {
          "indexed": true,
          "internalType": "uint256",
          "name": "tokenId",
          "type": "uint256"
        }
      ],
      "name": "Approval",
      "type": "event"
    },
    {
      "anonymous": false,
      "inputs": [
        {
          "indexed": false,
          "internalType": "address",
          "name": "owner",
          "type": "address"
        },
        {
          "indexed": false,
          "internalType": "uint256",
          "name": "kittenId",
          "type": "uint256"
        },
        {
          "indexed": false,
          "internalType": "uint256",
          "name": "maternalId",
          "type": "uint256"
        },
        {
          "indexed": false,
          "internalType": "uint256",
          "name": "paternalId",
          "type": "uint256"
        },
        {
          "indexed": false,
          "internalType": "uint256",
          "name": "geneSequence",
          "type": "uint256"
        }
      ],
      "name": "Birth",
      "type": "event"
    },
    {
      "anonymous": false,
      "inputs": [
        {
          "indexed": true,
          "internalType": "address",
          "name": "from",
          "type": "address"
        },
        {
          "indexed": true,
          "internalType": "address",
          "name": "to",
          "type": "address"
        },
        {
          "indexed": true,
          "internalType": "uint256",
          "name": "tokenId",
          "type": "uint256"
        }
      ],
      "name": "Transfer",
      "type": "event"
    },
    {
      "constant": true,
      "inputs": [],
      "name": "CREATION_LIMIT_GEN0",
      "outputs": [
        {
          "internalType": "uint256",
          "name": "",
          "type": "uint256"
        }
      ],
      "payable": false,
      "stateMutability": "view",
      "type": "function"
    },
    {
      "constant": true,
      "inputs": [],
      "name": "gen0Count",
      "outputs": [
        {
          "internalType": "uint256",
          "name": "",
          "type": "uint256"
        }
      ],
      "payable": false,
      "stateMutability": "view",
      "type": "function"
    },
    {
      "constant": true,
      "inputs": [
        {
          "internalType": "uint256",
          "name": "",
          "type": "uint256"
        }
      ],
      "name": "kittyOwner",
      "outputs": [
        {
          "internalType": "address",
          "name": "",
          "type": "address"
        }
      ],
      "payable": false,
      "stateMutability": "view",
      "type": "function"
    },
    {
      "constant": true,
      "inputs": [],
      "name": "name",
      "outputs": [
        {
          "internalType": "string",
          "name": "",
          "type": "string"
        }
      ],
      "payable": false,
      "stateMutability": "view",
      "type": "function"
    },
    {
      "constant": true,
      "inputs": [],
      "name": "owner",
      "outputs": [
        {
          "internalType": "address",
          "name": "",
          "type": "address"
        }
      ],
      "payable": false,
      "stateMutability": "view",
      "type": "function"
    },
    {
      "constant": true,
      "inputs": [],
      "name": "symbol",
      "outputs": [
        {
          "internalType": "string",
          "name": "",
          "type": "string"
        }
      ],
      "payable": false,
      "stateMutability": "view",
      "type": "function"
    },
    {
      "constant": true,
      "inputs": [
        {
          "internalType": "uint256",
          "name": "_id",
          "type": "uint256"
        }
      ],
      "name": "getKitty",
      "outputs": [
        {
          "internalType": "uint256",
          "name": "geneSequence",
          "type": "uint256"
        },
        {
          "internalType": "uint256",
          "name": "birthTime",
          "type": "uint256"
        },
        {
          "internalType": "uint256",
          "name": "maternalId",
          "type": "uint256"
        },
        {
          "internalType": "uint256",
          "name": "paternalId",
          "type": "uint256"
        },
        {
          "internalType": "uint256",
          "name": "generation",
          "type": "uint256"
        }
      ],
      "payable": false,
      "stateMutability": "view",
      "type": "function"
    },
    {
      "constant": false,
      "inputs": [
        {
          "internalType": "uint256",
          "name": "_geneSequence",
          "type": "uint256"
        }
      ],
      "name": "createKittyGen0",
      "outputs": [
        {
          "internalType": "uint256",
          "name": "",
          "type": "uint256"
        }
      ],
      "payable": false,
      "stateMutability": "nonpayable",
      "type": "function"
    },
    {
      "constant": true,
      "inputs": [
        {
          "internalType": "address",
          "name": "owner",
          "type": "address"
        }
      ],
      "name": "balanceOf",
      "outputs": [
        {
          "internalType": "uint256",
          "name": "balance",
          "type": "uint256"
        }
      ],
      "payable": false,
      "stateMutability": "view",
      "type": "function"
    },
    {
      "constant": true,
      "inputs": [],
      "name": "totalSupply",
      "outputs": [
        {
          "internalType": "uint256",
          "name": "",
          "type": "uint256"
        }
      ],
      "payable": false,
      "stateMutability": "view",
      "type": "function"
    },
    {
      "constant": true,
      "inputs": [
        {
          "internalType": "uint256",
          "name": "_tokenId",
          "type": "uint256"
        }
      ],
      "name": "ownerOf",
      "outputs": [
        {
          "internalType": "address",
          "name": "",
          "type": "address"
        }
      ],
      "payable": false,
      "stateMutability": "view",
      "type": "function"
    },
    {
      "constant": false,
      "inputs": [
        {
          "internalType": "address",
          "name": "_to",
          "type": "address"
        },
        {
          "internalType": "uint256",
          "name": "_tokenId",
          "type": "uint256"
        }
      ],
      "name": "transfer",
      "outputs": [],
      "payable": false,
      "stateMutability": "nonpayable",
      "type": "function"
    },
    {
      "constant": true,
      "inputs": [
        {
          "internalType": "address",
          "name": "_owner",
          "type": "address"
        }
      ],
      "name": "getKittiesByOwner",
      "outputs": [
        {
          "internalType": "uint256[]",
          "name": "",
          "type": "uint256[]"
        }
      ],
      "payable": false,
      "stateMutability": "view",
      "type": "function"
    }
  ],
  "bytecode": "0x6080604052336000806101000a81548173ffffffffffffffffffffffffffffffffffffffff021916908373ffffffffffffffffffffffffffffffffffffffff160217905550611153806100536000396000f3fe608060405234801561001057600080fd5b50600436106100cf5760003560e01c80639d95aca31161008c578063b483433011610066578063b48343301461040d578063cb854ae71461042b578063d5a776ca14610499578063e98b7f4d146104db576100cf565b80639d95aca314610308578063a9059cbb146103a1578063b30387a4146103ef576100cf565b806306fdde03146100d457806318160ddd146101575780636352211e1461017557806370a08231146101e35780638da5cb5b1461023b57806395d89b4114610285575b600080fd5b6100dc610539565b6040518080602001828103825283818151815260200191508051906020019080838360005b8381101561011c578082015181840152602081019050610101565b50505050905090810190601f1680156101495780820380516001836020036101000a031916815260200191505b509250505060405180910390f35b61015f610572565b6040518082815260200191505060405180910390f35b6101a16004803603602081101561018b57600080fd5b810190808035906020019092919050505061057f565b604051808273ffffffffffffffffffffffffffffffffffffffff1673ffffffffffffffffffffffffffffffffffffffff16815260200191505060405180910390f35b610225600480360360208110156101f957600080fd5b81019080803573ffffffffffffffffffffffffffffffffffffffff1690602001909291905050506105bc565b6040518082815260200191505060405180910390f35b610243610605565b604051808273ffffffffffffffffffffffffffffffffffffffff1673ffffffffffffffffffffffffffffffffffffffff16815260200191505060405180910390f35b61028d61062a565b6040518080602001828103825283818151815260200191508051906020019080838360005b838110156102cd5780820151818401526020810190506102b2565b50505050905090810190601f1680156102fa5780820380516001836020036101000a031916815260200191505b509250505060405180910390f35b61034a6004803603602081101561031e57600080fd5b81019080803573ffffffffffffffffffffffffffffffffffffffff169060200190929190505050610663565b6040518080602001828103825283818151815260200191508051906020019060200280838360005b8381101561038d578082015181840152602081019050610372565b505050509050019250505060405180910390f35b6103ed600480360360408110156103b757600080fd5b81019080803573ffffffffffffffffffffffffffffffffffffffff16906020019092919080359060200190929190505050610790565b005b6103f7610961565b6040518082815260200191505060405180910390f35b610415610967565b6040518082815260200191505060405180910390f35b6104576004803603602081101561044157600080fd5b810190808035906020019092919050505061096c565b604051808273ffffffffffffffffffffffffffffffffffffffff1673ffffffffffffffffffffffffffffffffffffffff16815260200191505060405180910390f35b6104c5600480360360208110156104af57600080fd5b810190808035906020019092919050505061099f565b6040518082815260200191505060405180910390f35b610507600480360360208110156104f157600080fd5b8101908080359060200190929190505050610a31565b604051808681526020018581526020018481526020018381526020018281526020019550505050505060405180910390f35b6040518060400160405280600c81526020017f576f6c66664b697474696573000000000000000000000000000000000000000081525081565b6000600180549050905090565b60006002600083815260200190815260200160002060009054906101000a900473ffffffffffffffffffffffffffffffffffffffff169050919050565b6000600360008373ffffffffffffffffffffffffffffffffffffffff1673ffffffffffffffffffffffffffffffffffffffff168152602001908152602001600020549050919050565b6000809054906101000a900473ffffffffffffffffffffffffffffffffffffffff1681565b6040518060400160405280600281526020017f574b00000000000000000000000000000000000000000000000000000000000081525081565b606080600360008473ffffffffffffffffffffffffffffffffffffffff1673ffffffffffffffffffffffffffffffffffffffff168152602001908152602001600020546040519080825280602002602001820160405280156106d45781602001602082028038833980820191505090505b509050600080905060008090505b600180549050811015610785578473ffffffffffffffffffffffffffffffffffffffff166002600083815260200190815260200160002060009054906101000a900473ffffffffffffffffffffffffffffffffffffffff1673ffffffffffffffffffffffffffffffffffffffff161415610778578083838151811061076357fe5b60200260200101818152505081806001019250505b80806001019150506106e2565b508192505050919050565b600073ffffffffffffffffffffffffffffffffffffffff168273ffffffffffffffffffffffffffffffffffffffff161415610816576040517f08c379a00000000000000000000000000000000000000000000000000000000081526004018080602001828103825260248152602001806110996024913960400191505060405180910390fd5b3073ffffffffffffffffffffffffffffffffffffffff168273ffffffffffffffffffffffffffffffffffffffff16141561089b576040517f08c379a000000000000000000000000000000000000000000000000000000000815260040180806020018281038252602b8152602001806110f4602b913960400191505060405180910390fd5b3373ffffffffffffffffffffffffffffffffffffffff166002600083815260200190815260200160002060009054906101000a900473ffffffffffffffffffffffffffffffffffffffff1673ffffffffffffffffffffffffffffffffffffffff1614610952576040517f08c379a00000000000000000000000000000000000000000000000000000000081526004018080602001828103825260378152602001806110bd6037913960400191505060405180910390fd5b61095d338383610ae0565b5050565b60045481565b600a81565b60026020528060005260406000206000915054906101000a900473ffffffffffffffffffffffffffffffffffffffff1681565b60008060009054906101000a900473ffffffffffffffffffffffffffffffffffffffff1673ffffffffffffffffffffffffffffffffffffffff163373ffffffffffffffffffffffffffffffffffffffff16146109fa57600080fd5b600a60045410610a0957600080fd5b600460008154809291906001019190505550610a2a60008060008533610cf3565b9050919050565b60008060008060008060018781548110610a4757fe5b906000526020600020906002020190508060010160009054906101000a900467ffffffffffffffff1667ffffffffffffffff1694508060010160089054906101000a900463ffffffff1663ffffffff16935080600101600c9054906101000a900463ffffffff1663ffffffff1692508060010160109054906101000a900461ffff1661ffff169150806000015495505091939590929450565b610b336001600360008573ffffffffffffffffffffffffffffffffffffffff1673ffffffffffffffffffffffffffffffffffffffff16815260200190815260200160002054610ebd90919063ffffffff16565b600360008473ffffffffffffffffffffffffffffffffffffffff1673ffffffffffffffffffffffffffffffffffffffff16815260200190815260200160002081905550816002600083815260200190815260200160002060006101000a81548173ffffffffffffffffffffffffffffffffffffffff021916908373ffffffffffffffffffffffffffffffffffffffff160217905550600073ffffffffffffffffffffffffffffffffffffffff168373ffffffffffffffffffffffffffffffffffffffff1614610c9357610c4f6001600360008673ffffffffffffffffffffffffffffffffffffffff1673ffffffffffffffffffffffffffffffffffffffff16815260200190815260200160002054610f4590919063ffffffff16565b600360008573ffffffffffffffffffffffffffffffffffffffff1673ffffffffffffffffffffffffffffffffffffffff168152602001908152602001600020819055505b808273ffffffffffffffffffffffffffffffffffffffff168473ffffffffffffffffffffffffffffffffffffffff167fddf252ad1be2c89b69c2b068fc378daa952ba7f163c4a11628f55a4df523b3ef60405160405180910390a4505050565b6000610cfd61104f565b6040518060a001604052808581526020014267ffffffffffffffff1681526020018863ffffffff1681526020018763ffffffff1681526020018661ffff168152509050600060018083908060018154018082558091505090600182039060005260206000209060020201600090919290919091506000820151816000015560208201518160010160006101000a81548167ffffffffffffffff021916908367ffffffffffffffff16021790555060408201518160010160086101000a81548163ffffffff021916908363ffffffff160217905550606082015181600101600c6101000a81548163ffffffff021916908363ffffffff16021790555060808201518160010160106101000a81548161ffff021916908361ffff16021790555050500390507f0a5311bd2a6608f08a180df2ee7c5946819a649b204b554bb8e39825b2c50ad584828a8a89604051808673ffffffffffffffffffffffffffffffffffffffff1673ffffffffffffffffffffffffffffffffffffffff1681526020018581526020018481526020018381526020018281526020019550505050505060405180910390a1610eaf60008583610ae0565b809250505095945050505050565b600080828401905083811015610f3b576040517f08c379a000000000000000000000000000000000000000000000000000000000815260040180806020018281038252601b8152602001807f536166654d6174683a206164646974696f6e206f766572666c6f77000000000081525060200191505060405180910390fd5b8091505092915050565b6000610f8783836040518060400160405280601e81526020017f536166654d6174683a207375627472616374696f6e206f766572666c6f770000815250610f8f565b905092915050565b600083831115829061103c576040517f08c379a00000000000000000000000000000000000000000000000000000000081526004018080602001828103825283818151815260200191508051906020019080838360005b83811015611001578082015181840152602081019050610fe6565b50505050905090810190601f16801561102e5780820380516001836020036101000a031916815260200191505b509250505060405180910390fd5b5060008385039050809150509392505050565b6040518060a0016040528060008152602001600067ffffffffffffffff168152602001600063ffffffff168152602001600063ffffffff168152602001600061ffff168152509056fe4e6f7420616c6c6f77656420746f207472616e7366657220746f20302061646472657373596f75206d757374206f776e2074686520746f6b656e20746f2062652061626c6520746f207472616e736665722074686520746f6b656e4e6f7420616c6c6f77656420746f207472616e7366657220746f20636f6e74726163742061646472657373a265627a7a7231582012917705df84283936d7018598625c08b1d4642743819445c75c026c512e5ed264736f6c634300050c0032",
  "source": "pragma solidity ^0.5.12;\n\nimport \"./IERC721.sol\";\nimport \"./SafeMath.sol\";\nimport \"./Ownable.sol\";\n\ncontract Kittycontract is IERC721, Ownable {\n\n    using SafeMath for uint256;\n\n    uint256 public constant CREATION_LIMIT_GEN0 = 10;\n\n    // NOTE: since these are public, getters auto gen'd and we don't need to add our own getters\n    //  to comply with interface\n    string public constant name = \"WolffKitties\";\n    string public constant symbol = \"WK\";\n\n    // Birth Event\n    event Birth(\n        address owner,\n        uint256 kittenId,\n        uint256 maternalId,\n        uint256 paternalId,\n        uint256 geneSequence\n    );\n\n    // Cat Structure\n    struct Kitty {\n        uint256 geneSequence;\n        uint64 birthTime;\n        uint32 maternalId;\n        uint32 paternalId;\n        uint16 generation;\n    }\n\n    // Array of Cats\n    Kitty[] kitties;\n\n    // Cat id mapped to owner address\n    mapping(uint256 => address) public kittyOwner;\n    // Owner address mapped to quantity owned\n    mapping(address => uint256) ownershipTokenCount;\n\n    uint256 public gen0Count;\n\n    // Get Kitty\n    /*\n     * defining whats returned in 'returns' instead of a return statement in the function body\n     *  - this is an in effect same difference, just a cleaner way of doing with multiple vals\n     * returning all values as unint256 as much easier to read\n    */\n    function getKitty(uint256 _id) external view returns (\n        uint256 geneSequence,\n        uint256 birthTime,\n        uint256 maternalId,\n        uint256 paternalId,\n        uint256 generation\n    ) {\n        // Use 'storage' here as it creates a pointer -- if we used 'memory', it would create a local copy\n        Kitty storage kitty = kitties[_id];\n\n        birthTime = uint256(kitty.birthTime);\n        maternalId = uint256(kitty.maternalId);\n        paternalId = uint256(kitty.paternalId);\n        generation = uint256(kitty.generation);\n        geneSequence = uint256(kitty.geneSequence);\n    }\n\n    // Generation 0 Kitty creation function usable only by contract owner\n    function createKittyGen0(uint256 _geneSequence) public onlyOwner returns (uint256) {\n        require(gen0Count < CREATION_LIMIT_GEN0);\n\n        gen0Count++;\n\n        return _createKitty(0, 0, 0, _geneSequence, msg.sender);\n    }\n\n    // Function to create Kitty\n    function _createKitty(\n        uint256 _maternalId,\n        uint256 _paternalId,\n        uint256 _generation,\n        uint256 _geneSequence,\n        address _owner\n    ) private returns (uint256) {\n        Kitty memory _kitty = Kitty({\n            geneSequence: _geneSequence,\n            birthTime: uint64(now),\n            maternalId: uint32(_maternalId),\n            paternalId: uint32(_paternalId),\n            generation: uint16(_generation)\n        });\n\n        // 'push' returns size of array - we want to start id's from 0, so we subtract 1\n        uint256 newKittenId = kitties.push(_kitty) - 1;\n\n        emit Birth(_owner, newKittenId, _maternalId, _paternalId, _geneSequence);\n\n        // Address 0 implies this is a 'birth', as its not transferred from a previous owner\n        _transfer(address(0), _owner, newKittenId);\n\n        return newKittenId;\n    }\n\n    // How many kitties (721's) does an address own\n    function balanceOf(address owner) external view returns (uint256 balance) {\n        return ownershipTokenCount[owner];\n    }\n\n    // The total number of tokens in circulation\n    function totalSupply() public view returns (uint) {\n        return kitties.length;\n    }\n\n    // Returns the owner address of the token\n    function ownerOf(uint256 _tokenId) external view returns (address) {\n        // Token must exist\n        // require(kittyOwner[_tokenId].exists,  'Token Id not found');\n        // TODO need to debug above require, not working\n\n        return kittyOwner[_tokenId];\n    }\n\n    // Transfer ownership of a token\n    function transfer(address _to, uint256 _tokenId) external {\n        // Can't transfer to the zero address\n        require(_to != address(0), 'Not allowed to transfer to 0 address');\n        // Can't transfer to the contract address\n        require(_to != address(this), 'Not allowed to transfer to contract address');\n        // Token must be owned by sender\n        require(kittyOwner[_tokenId] == msg.sender, 'You must own the token to be able to transfer the token');\n\n        _transfer(msg.sender, _to, _tokenId);\n    }\n\n    // Internal function to manage transfer and state\n    function _transfer(address _from, address _to, uint256 _tokenId) internal {\n        // Add 1 to owners token count\n        ownershipTokenCount[_to] = ownershipTokenCount[_to].add(1);\n\n        // Update ownership array\n        kittyOwner[_tokenId] = _to;\n\n        // If not a 'mint' transfer, then decrement from owner token ownershipTokenCount\n        if (_from != address(0)) {\n            ownershipTokenCount[_from] = ownershipTokenCount[_from].sub(1);\n        }\n\n        // Emit transfer event\n        emit Transfer(_from, _to, _tokenId);\n    }\n\n    // Get a list of all kitty id's for an owner\n    function getKittiesByOwner(address _owner) external view returns(uint[] memory) {\n        uint[] memory result = new uint[](ownershipTokenCount[_owner]);\n        uint kittyCount = 0;\n        for (uint i = 0; i < kitties.length; i++) {\n            if (kittyOwner[i] == _owner) {\n                result[kittyCount] = i;\n                kittyCount++;\n            }\n        }\n\n        return result;\n    }\n}\n",
  "sourcePath": "/home/wolff/WebstormProjects/CryptoKitties/academy-kitties-template/contracts/Kittycontract.sol",
  "compiler": {
    "name": "solc",
    "version": "0.5.12+commit.7709ece9.Emscripten.clang"
  },
  "schemaVersion": "3.2.0",
  "updatedAt": "2021-03-27T22:17:17.243Z",
  "networkType": "ethereum",
  "devdoc": {
    "methods": {}
  },
  "userdoc": {
    "methods": {}
  }
}